:20000000183F002075650000FDC90110FDC90110FDC90110FDC90110FDC90110FDC9011085
:1C002000FDC90110FDC90110FDC90110FDC90110FDC90110FDC901103BCA0110A4
:20003C002DE9F04F0120ADF15C0DADF81A000827ADF8187006A806F039FE00263546DF4C65
:20005C008DF854509DF81C006070A6700898E0614FF6FF70A082384607F077FB5FEA0008D5
:20007C000CD00121122207F0FBFE07F07EFB15A90123D64A0091414606F01CFD9DF85400C0
:20009C00DFF86C83324601232070414604F1A80006F0F8F904F1CC0032460223414606F06C
:2000BC00F1F904F1F00032460423414606F0EAF9042031461022E07004F1480005F056FCB5
:2000DC0004F158003146102205F050FC2562267266720720E67204F148021021A0720220B3
:2000FC0006F0CEFE04F158020320102106F0C8FE042004F12002014606F0C2FE19E0A0787A
:20011C00B4F84050B4F84230B4F84420B4F8461006280ED1ADF84250ADF84430ADF84620EF
:20013C00CC48ADF8481007F097FF012010A905F0DBFB0A20ADF80A00ADF808704FF0FF35F7
:20015C00039502A806F0B2FD002840F0E38130460C90ADF824700925ADF8265009A806F0A5
:20017C00A5FDDDF82C900028CDF8309040F0D281BDF82800102840F0C18160789DF82A10D2
:20019C00884240F0BB814D4628884FF6FF71814200F0AC812B78A23B00F091812E3B40F01A
:2001BC00AD81A878B046002800F05E81801E00F03681401E012840F20B81801E00F0B98097
:2001DC00401E7FD0401E60D0083800F06981801E40F06B8194F83E30A888052BADF83400C1
:2001FC004BD001208DF83E009A4807F035FF94F83E00012820D004281ED003280DD00228A8
:20021C000BD00C98C188ADF836100189ADF838104189ADF83A1080892BE0B4F84000B4F833
:20023C004250ADF83600B4F84430ADF83850B4F84600ADF83A301CE0B4F84000E9888842C4
:20025C00D8BF081CADF836002989B4F842008842D8BF081CADF838006989B4F8440088423E
:20027C00D8BF081CADF83A00B4F84610A889814200DC0146ADF83C1001E08DF83E60B24ABE
:20029C000DA8122106F0B1FE0FE1B04807F0E4FE6878002840F00981E888E082288920830C
:2002BC00688960836B4807F069FD002840F0FD80A56A002D00F0F9802B68E08A218B628B2E
:2002DC009847F2E0B5F804A00A2007F03EFA5FEA00080AD00121152207F0C2FDA8F808A025
:2002FC0007F043FA414607F05BF8BA483146062205F03CFBE68226836683A8796073554885
:20031C0007F0AAFE914807F0A7FE4FF001084FF6FF706379A0824BB9A879082814BF042067
:20033C000520A070404607F009FCBEE00320A070BBE06878002843D1A649281D02680A605A
:20035C00808888800623A3706889A082E889E082288A2083688A6083E878207394F83E0068
:20037C00012818BF022808D11F2006F03BFA4FF47A714143374806F011FC95F803B0B5F8D3
:20039C000AA0142007F0E1F95FEA000800F090800121142207F064FD88F808B02D1DC8F84F
:2003BC000C50A8F810A0042088F8120007F0DDF9814A414606F060FB7AE0C04608020020C5
:2003DC00687831286AD12671042022E06F7E00006878002862D1A878618AA278032813D075
:2003FC002079657931B9012814BF6671267107E0597B0000054303D0724806F0CFFBA278AC
:20041C00072AE1D1062004E0062A06D0207910B90320A0704CE00220FBE70720F9E7687821
:20043C0000283BD1EB78A078E179ABB9022818D0072816D0062802D16179012911D10328FA
:20045C000FD0604807F09AFC58B9012007F076FB07E0C046D40200205F4A404605F008FFC4
:20047C0068706878D0B920E06878B8B9564A0220102106F01FFD554A0320102106F01AFDC9
:20049C005648ED1C29680160AB888380544A01252846A179A57005F0EBFE48B1A77007E03B
:2004BC00A888464A102106F087FDB8F1010F25D1606A18B3016809B3A07888471EE0687986
:2004DC0013281BD12889012808D1A07B022805D11E4807F0C1FD05F0B1FF0FE0052006F041
:2004FC0081F90146194806F059FB07E06888C00B04D3374A0420014606F0DCFC0C9848B1A4
:20051C00ADF810700320ADF81200CDF8149004A806F0CCFB208A65792179420831D320F06E
:20053C00010055EA010320822BD08DB92D49207A8DF84A00657A8DF84B500A6813AB1A60F0
:20055C008988998007E0C046CF7F0000F802002003208DF84A00A07AE57A194A8DF852005B
:20057C0006218DF853500DF14A0006F017F8616A30B1A77021B1086810B10968384688473F
:20059C00208A810807D3184920F002002082304605F0AAF9208AC108FFF4CBAD20F004001D
:2005BC00A57B2082681E3FF4AAAD401E7FF4C1AD05F044FFBDE5C046377E0000F37F000007
:2005DC00E77F0000B0020020500200206002002028020020400200208F0200203402002020
:2005FC00700200203A020020460200202DE9FE4FDD4981460122A1F130000260D848076863
:20061C00002FFCD0D74AE34EC027D848D84B17603268920808D2324652F8042C03F1410497
:20063C00120C42F0F00222704FF0000A8346C1F800A0DFF88CC3DBF80810E04F0191880EF7
:20065C0043D2480E41D3802018744FF6D802A3F8512018703868C0F30464162CA8BF203C60
:20067C001E460F3E307800F01F001628A8BF2038844223D0624602F1980EE44ACEF800A06B
:20069C00251A022D05DC15F1020FB8BF6FF0010500E002254019156800F01F05844245F40C
:2006BC00F855A6F866504FF001051560E8D110682E4616601068CEF80050106838460068BC
:2006DC00C0F30420162808DB06E0A7F1D0000068C0F30460162800DB203800EB2170401CF0
:2006FC00162805DA10F10A0FB8BF6FF0090000E01520D54E00F01F0040F4F850A3F8590011
:20071C00306880083ABFD148C0F800A041F040616246C80E8E0E80F0010000F00100106075
:20073C0086F0010000F001009060019805F074FA0146182006F03CFBA7F13806CD4C306816
:20075C003568A4F10408C0F3870105F0030041EA0021D8F80400C04D446840F2FF32534637
:20077C0088B22C21009028464038A047F06AC0F30D011C2006F01CFBB549706A014000F00C
:20079C007C400143142006F013FB316A01F47C000904090C0143102006F00AFB7D4AB06A87
:2007BC001268C0F30351C0F30344520813D2DBF80020130511EB237103D41029A8BF0F2121
:2007DC0000E05146120414EB227403D4102CA8BF0F2400E0544644EA011400F47F4200F0CC
:2007FC00FF01B9F1220F42EA044241EA020124BF00F0804001430C2006F0DAFA954CB9F10A
:20081C00220F32BF01202068C0F30070B9F1220F4FEA400040F0200085F8090126BF206836
:20083C00C0F3407001208D4EB9F1200F40F0100085F8090138BF514606D33168C80C00F4D5
:20085C004070C1F384510143282006F0B1FAB9F1200F26BF3068C0F301505046B9F1220F4B
:20087C004FEA400040F0600085F80C0126BF2068C0F3C0605046B9F1220F4FEAC00040F0EF
:20089C00800085F8010126BF2068C0F345505046B9F1200F4FEA800040F47C40A5F89C0136
:2008BC0038BF6F490AD3306801038A15920501F47C1100F00F00114341EA0031082006F06F
:2008DC0077FACC3F4FF480002860664AB86D40F21E216FF31F40814216D93868030E03F0D8
:2008FC000F0113F00F0FC0F3034018BF491E072805D006280EBF0720801C00F00F0041EA8B
:20091C000011A2F108000170DDF804C0CCF381477F1E02D07F1E31D02CE02068810C29D255
:20093C004FF480412960D2F80210430AC0F3033703F0800321F08F010B4347EA0301C2F8A4
:20095C000210D2F80130060A66F30303C2F80130116800F0E70721F0E70147EA01000CE0A6
:20097C009402224300600C4040100940AC3F0050156208404FF000402A461060054800680D
:20099C00C0F3C0070FB94020A8624FF40070286402E0C046B03F005020684027C0F3C14086
:2009BC0040F0300085F8C800CCF3815080B3401E08D0FFE7401E23D0022122E08813005036
:2009DC0000002043012006F017FD06460420314605F0BAFA042006F00FFD8642FAD12248BA
:2009FC00066826F07F4006F0DDFBD8F81400036807214FF06022300E98474FF480602860CA
:200A1C000321042005F0A0FA09E0C0462C2009400420012105F098FA144806F0C3FB203C26
:200A3C00206800F03F0085F8CB0FD8F80030124ED96830680220884710480D4C0760012128
:200A5C002160BDE8FE8FC0460000094094042A43FCFCFC008C13005040A00C409813005069
:200A7C0000803F400A600840A83F0050BD37860094046042A40100102C20094000600C40C8
:200A9C00BA482DE9F84F0025B94CB749056094F8E200002800F06381012800F02F81B54E16
:200ABC0002283CD0032840F05A8151F8250CD4F8B8100029A0F5C060C4F8D400B8BF494230
:200ADC000028B8BF4042814226DA4FF08057D7F8A4014568B4F8BC0030214FF47F420823F7
:200AFC0000903046A847D7F8A4014568B4F8C00004214FF4F802122300903046A847D7F8FD
:200B1C00A401B4F8D070456820214FF440620A2330460097A847012584F8D8501AE151F81E
:200B3C00258C07F0CFF92F4600B901273946924F38680028FCD0B146012609F10409D9F8E9
:200B5C002CA03E6009B107F0C3F9CAF30720C4F8BC0007F0B7F9AA4600B9B2463B68002B30
:200B7C00FCD0D9F800B0BAF1000F3E6001D007F0AFF9CBF38440C4F8C00007F0A3F9AA46C3
:200B9C0000B9B2463B68002BFCD0D9F81C90BAF1000F3E6001D007F09BF9C9F38120C4F8A4
:200BBC00D000B8F5C061C4F8B81000F09C8094F8D80068B9C4F8D410D4F8C000C4F8C800B6
:200BDC00D4F8BC70C4F8C470D4F8D030C4F8CC30D4F8D400D4F8BC30002854BF02226FF077
:200BFC00010204F1C8010F6800EB40008018421000EB927207EBA2000860D4F8C810C4F841
:200C1C00C43000291CDD1E293CDDD4F8CC0030B93429B4BF15391E21C4F8C81025E02A2978
:200C3C00BABFD4F8C8000B381E20C4F8C800D4F8C4003F28B4BF401C3F20C4F8C4001FE0E2
:200C5C00D4F8CC00032812D011F10B0FC6BFD4F8C8000B30301CC4F8C800D4F8C4000028DB
:200C7C00C4BF401E051CC4F8C450032508E011F1150FC6BFD4F8C8001530301CC4F8C80022
:200C9C00C4F8CC504FF08057D7F8A401B4F8C43030214FF47F424568364800930823A84709
:200CBC00D7F8A40104214FF400321123456831480096A847B4F8C860D7F8A40104214FF47B
:200CDC00F802122345682B480096A847D7F8A40120214FF440620A23B4F8CC60456825486B
:200CFC000096A84701E084F8D85040F2FF50404502D8801C40452DD208202EE051F8251C0E
:200D1C001E4F4BF2F5204843060A3868C0F3814001280AD106F04AFC05F0DCFD07F0DEF86E
:200D3C003111C010484306EBE03694F8E50030B91348006820F07F403618760801E084F8DE
:200D5C00E5501048310C0660012741600E4D8760287808B90B2000E0052084F8E40003F058
:200D7C00E3FABDE8F88FC0462D400C402C500C40900D002000A00C4000800C40B43F00500F
:200D9C00102009403C600C40D1840000F8B5A0F2013517460E46022D40F214818A4A8B49BD
:200DBC008B4B2D1F0F2D04D9143D4AD0AD1E1CD011E0DFE815F0C300BC00F400E400B300F3
:200DDC00AB000701A2009A00100010009200880079006F006300282880F2F480022E40F0ED
:200DFC00F180398805F048FFF8BD012E40F0EA8015462879012800F0E58051793878507136
:200E1C0081B9002800F0DE809078012800F0A980042800F0A680062800F0A380052800F01C
:200E3C00A080F8BD3878002840F0CC809078032800F0A280072800F09F80052800F09C80B1
:200E5C00F8BD012E40F0BE803878012840F0BA80154605F1F00006F091FF002840F0B28090
:200E7C002C46002004F13E0104F03EFD002840F0A98004F1CC0007F0EFF8F8BD022E40F02C
:200E9C00A18038880A28C0F29D80B0F5486F00F3998015E0022E40F095803888B0F5FA7FA4
:200EBC0080F290800880F8BD022E40F08B8038880628C0F28780B0F5486F00F38380194694
:200EDC00891C0D4638E0022E7CD13888062879DBB0F5486F76DC1946F3E7012E72D138781E
:200EFC0006286FDA891F0D460EE0012E6AD13878042867DA15460B3506E0012E62D138785C
:200F1C0008285FDA15460A352870F8BD012E59D13878042856DA1546093506E0012E51D130
:200F3C00387804284EDC154608352946DBE7022E48D13888154612352946B3E7012E41D1D1
:200F5C001546687901283DD011793878107161B9002837D09078012803D0042818BF0528CB
:200F7C0030D1012006F0EAFDF8BD387850BB9078022818BF052825D106F0B8FEF8BD1546FE
:200F9C0005F1870400211F22204604F0EFFC39463246204604F06AFA0020EE710EE0154690
:200FBC0005F1680400211F22204604F0DFFC39463246204604F05AFA0120AE713146224658
:200FDC0005F056F9F8BDC046080200204C0200204802002010B507F045F8002400B1012401
:040FFC00204610BDBE
:201000003C000000000000000000000034100000000000000000000001000000000000004F
:1C10200000000000000000000000000001000000000000000800000000000000AB
:20103C003400000000000000000000006810000000000000000000000100000000000000E7
:14105C00010000000000000000000000080000000000000077
:2010700030000000000000000000000098100000040000000000000001000000FFFFFFFF87
:10109000FF00000001000000080000000000000048
:2010A0002C0000000000000000000000C4100000040000000000000001000000FFFFFFFF2F
:0C10C000FFFFFFFF080000000000000020
:2010CC0038140000E410000095A1011091A70110A1C2011009B2011041B8011000000000EA
:0810EC00000000002F000000CD
:2010F400280000000000000000000000141100000000000000000000FFFFFFFF0000000093
:081114000800000000000000CB
:20111C00341400003011000065C2011069C101101BC2011091BA011000000000000000006D
:04113C002D00000082
:20114000341400005411000071C20110A5B6011099BF011045B601100000000000000000BD
:041160002E0000005D
:201164002400000000000000000000008011000000000000000000000000000008000000AE
:041184000000000067
:20118800240000000000000000000000A41100000000000000000000000000000800000066
:0411A8000000000043
:2011AC00240000000000000000000000C8110000000000000100000000000000080000001D
:0411CC00000000001F
:2011D0000000000000120020040000000000000000000000200000007010000030000000F9
:2011F0001C110000081200200400000000000000000000000C00000030130000180000000D
:20121000401100001012002004000000000000000000000024000000481300001800000090
:20123000000000001812002004000000000000000000000010000000A01000002C00000064
:20125000CC1000002012002004000000000000000000000020000000641100002400000093
:20127000FFFFFFFF281200200400000000000000000000002800000088110000240000001F
:20129000FFFFFFFF30120020040000000000000000000000580000003C1000003400000004
:2012B000FFFFFFFF3812002004000000000000000000000010000000601300001800000019
:2012D000FFFFFFFF401200200400000000000000000000001C000000AC110000240000008F
:2012F000FFFFFFFF4812002004000000000000000000000038000000F41000002800000000
:20131000FFFFFFFF5012002004000000000000000000000054000000001000003C0000009B
:1813300018000000000000000000000040130000080000000000000032
:1813480018000000000000000000000058130000080000000000000002
:18136000180000000000000000000000701300000800000000000000D2
:0813780001000000888500005F
:0413800030BF7047C3
:041384000100000064
:0413880000000E0053
:04138C0000000F004E
:041390003200000027
:041394000100000054
:041398008811002098
:04139C00000200004B
:0413A0000000000049
:0413A400FDC901106E
:0413A8000000000041
:0413AC00000000003D
:0413B0000800000031
:0413B4000000230012
:0413B80020100020E1
:0413BC00010000002C
:0413C000A011002058
:0413C400080000001D
:0413C8000000000021
:0413CC00000000001D
:0413D0000000000019
:0413D400080000000D
:0413D8000000000011
:0413DC00000000000D
:0413E0000100000008
:0413E400B81000201D
:0413E80006000000FB
:0413EC0001000000FC
:0413F0008C0F00203E
:0413F40000000000F5
:0413F80000000000F1
:0413FC0000020000EB
:0414000000000000E8
:0214040070472F
:021406002900BB
:021408000100E1
:02140A002500BB
:02140C002D00B1
:02140E002E00AE
:021410002F00AB
:021412000100D7
:0114140001D6
:0814180003000000388500000C
:081420000000000000000000C4
:0414280000000100BF
:04142C0000000300B9
:0414300083C4011060
:041434003C14000064
:041438003C14000060
:04143C0000000000AC
:041440009000000018
:041444009000000014
:0414480000000000A0
:04144C00A0110020CB
:04145000F77C000025
:041454002000000074
:04145800008500000B
:04145C009884000070
:0414600009C30110AB
:041464005F6C0000B9
:04146800C775000044
:04146C0095C801100E
:0414700097C8011008
:041474000000000074
:041478009784000055
:04147C00D083000019
:04148000E8830000FD
:04148400B883000029
:0214880008005A
:02148A00090057
:02148C0001005D
:02148E0000005C
:01149000015A
:041494000000000054
:041498000000000050
:04149C00000000004C
:0414A0000000000048
:0414A4007D80000047
:0414A800F16B0000E4
:0414AC0021770000A4
:0414B0006D6F00005C
:0414B400CF700000F5
:0414B8004567000084
:0414BC00E9560000ED
:0414C0008B7E00001F
:0414C400D9600000EB
:0414C8000DC801103A
:0414CC001DC8011026
:0414D0000800000010
:0414D40024000000F0
:0414D80018000000F8
:0414DC0028000000E4
:0414E00020000000E8
:0414E4003C000000C8
:0414E8000C000000F4
:0414EC0034000000C8
:2014F00021B1C968814201D1012070470020704738B5054606F096FD2C680CB12168296071
:2015100006F09CFE204632BD70B505460E46144606F088FD2A68002131603AB92E600CB1BB
:201530000121217006F08AFE012070BD14B1217000E0126811680029FBD1B24218BF1660BD
:20155000F0D106F07BFE002070BDF8B50C68054606F068FD0026074634B101F0CBFC00B176
:2015700026462468002CF8D101F084BF00213022DFF8340C4A43104490F82F20130603D507
:20159000491C0829F3D3002070472DE9F84380468946164600273021DFF80C0C7943441847
:2015B00004F12C05B5F90000484508D1214600F07EFA20B1300008D0E878304205D17F1CF6
:2015D000082FE8D30020BDE8F2832046FBE710B50129044698BF012106F01CFD2046BDE8BB
:2015F000104006F019BD38B504460D4601F086FCA04231BF241A641E241A641CA40805F5CC
:201610007A70A04238BFB4F1405F05D2641B012C98BF0124204632BD002032BD70B50446E1
:20163000DFF8880BC0690025D8B18268117B012501F00F01022913D1C068DFF8BC3BC1688E
:2016500093F84A60192000FB06119068FFF7CBFFDFF8301C20600A68B0FBF2F2226001E03B
:2016700000202060284670BDDFF8B41B0A680020D30705D5DFF8100C0068C00900F001001E
:201690007047F8B500F000FB0546002C1CBFA07A00282AD094F909600127FFF7E5FF07FA64
:2016B00006F658B194F90900DFF8781B4A68113007FA00F0C04302404A6008600020A072A8
:2016D000207220606060E060C4E90400DFF8BC1B94F909000A788740174388780F7008B118
:2016F000401E8870F0B200F0D2FA2846BDE8F24006F0A4BD032805DA1821DFF8FC2A4843BF
:2017100010447047002070472DE9F0410025DFF8E88ADFF8106B0127E8B2FFF7EBFF04002A
:201730002AD0A07A012827D194F90900113007FA00F0C143316071680843706094F909007D
:2017500007FA00F0C0B200F093FAE068002101F0B0FA812802D10220A0720DE098F849001F
:2017700094F9092011219140084388F849000021DFF81C0B06F072FC6D1C032DCCD3BDE80C
:20179000F0812DE9F04F83B083466FF001008DF800000C4690461E4606F044FC019000251A
:2017B000DFF8E87A012097F800A000FA05F91AEA090F05D0E8B2FFF79DFF08B1817A69B3AB
:2017D0006D1C032DEED322E002290ED194F90900401D000226F43C5600F4706006434FF680
:2017F000FC710E40DFF8AC0A3043E0605FEA0800DFF8B81918BFC4F80480486B08B92268D0
:201810004A6300F0A9FA94F909008DF80000019806F014FD9DF90000BDE8FE8F2AEA0902D6
:201830003A7021460122827245720446BA780FF64510521CBA70C4F800B02172606000206C
:20185000217A0129C0D194F909006661401DA0740A21218204F11000C7E738B504281BD1CE
:20187000DFF8484904F1EC052846FFF7B9FB98B1284606F0CDFBDFF80C1A0A685043B0F5D6
:20189000967F09D2284606F0C9FB052005F0C0FC0120A07600F08BFA002032BD70B500F07A
:2018B000F3F9DFF85459064695F8840020EA040485F884400024286D20B19C30FFF790FB21
:2018D00000B10124686D20B19C30FFF789FB04431FD195F88400002808BF002C19D1A86FD2
:2018F000D0B190F820108A0707D5C46900F06EFDA86F00220221A04708E0446900F066FD7F
:20191000A86F00224FF400030021A0470020A86770BD304601F0C6BC70BDF8B500290CBF1D
:2019300001230023002A0CBF4FF0010C4FF0000C00291CBF8D6A002D4FF0000E6FF050465A
:20195000DFF8B47819D0446ABCB1C968C368994206D03B6D99420CBFD7F858E0D7F85CE003
:20197000A408A4EB9504A4EB0E01B14226DA01F18051B1F1805F21D90123002A1CBF546ACD
:20199000002C18D0816AB1B1D268C0680025904204D0386D82420CBFBD6DFD6DC5EB940598
:2019B000A5EB9105B54209DA05F18055B5F1805F04D94FF0010C03EA0C00F2BD0020F2BD27
:2019D000884201D300207047012901D101207047022070472DE9F047DFF8D0670F46316A8A
:2019F0008046FFF77DFD002400254FF0010948B1306A90F82E003946FFF7E2FFA146040085
:201A100018BF356AF069B0B1D6F81CA010E0514600F04DF850B19AF82E003946FFF7D0FF3B
:201A30004FF0000908B10CB955460446DAF800A0BAF1000FEBD1B9F1000F18BF022034D14C
:201A5000002C18BF002D2FD0306A2F4687420CD1316A00F02CF840B1306A90F82F1041F060
:201A7000080180F82F10F7695FB1394600F01FF828B197F82F0040F0080087F82F003F687C
:201A9000F2E7DFF8740700F18001C0F87880C0F87C8004F001040A7942F001020A71A88DD4
:201AB00008808C70012000E00020BDE8F087404616E52DE9F84F0446DDF82890DFF8945BDA
:201AD0000020687389F800008A4693469846FFF74DFD06003BD0DFF8D476388E401CC0F3AC
:201AF0000B00B0852868A04205D1287BC10744BF00F0FE002873D8F80000B0629BF80C00D6
:201B100000F00F0002280CBFDBF808000020BAF1000F706218D00AF19C00FFF761FA002842
:201B30004BD107F11C012046FFF70FFD040013D1F86988B1FA69396A00F04BF860B1F869CF
:201B50003060FE61012068733046BDE8F28F012089F800000020F8E7687B0028F4D114B9B0
:201B7000FC6900E0246854B32268214600F031F80028F7D02068306026600220E3E7687B17
:201B90000028E1D1F96921B100E0096808680028FBD19BF80C2002F08F02022AD4D121B18D
:201BB00000F016F80028CFD107E0386A0028CBD0396A00F00DF80028C6D10220C8E798F84B
:201BD00004105046FFF706FF0128D8D10420BAE700223046A1E638B5DFF87C4ADFF8CC5518
:201BF0006069002161610022E068E16005F180000FF2BD5106F01CFA002005F0DDFD06F008
:201C100023F8A96B2A6C814231BF401A401E401A401C02EB1032697D2A6429B1A87D18B95B
:201C3000696CC90291421CD2FFF71EFDA0B140F609002880002100206880687B00F0E4FC0E
:201C50006873287B00F0F00028736960E1612560688810F4406FFBD0012100206975A87540
:201C7000286404F05BFEDFF8F4190020086031BD10B500F009F8DFF834150A7E14430C76EA
:201C9000BDE8104006F0DABA044606F0CBB938B5FFF7FAFF0546DFF81405017E21EA040448
:201CB0000476017E0A0703D408214C3006F0D6F92846BDE8324006F0C1BADFF8F0140A7E70
:201CD000104070472DE9F047064682B00020306000246846FFF7A2FC81464FF0FF350027AB
:201CF000DFF8A0A5DFF81085F8B2FFF703FD00281CBF817A002916D0017A0124022920D0E4
:201D1000DFF8A8244069516B98F84A20C968192303FB0211FFF767FCDAF80010B0FBF1F06C
:201D3000A84298BF05467F1C032FDDD30AE0306001E004B1356054EA090018BF0120BDE801
:201D5000F6870025B9F1000FF3D0002C0098EED0A842ECD92846EAE770B5DFF85044207DB8
:201D7000022882B003D1192006F060F973BD012818BF04281AD006F055F905466846FFF722
:201D9000A1FF04F1EC0660B1009820B101463046FFF71DFC08E0304606F040F900F007F8EA
:201DB00002E0304606F03AF901F028F873BD042104F14C0006F052B9DFF8F023116A00295C
:201DD00000D1704710B5116A91F82F10CB061CD5D169D1B1D16991F82F10CB0615D4116AAE
:201DF000C968D369DC68A1420FD110B1012808D010BDBDE810404FF4004102F14C0006F022
:201E10002DB9116A91620020106210BD70B5DFF89C5382B0EC690120FFF7CEFF296A0029ED
:201E300039D1002C34D0E068696B884218BF4FF480612ED16846FFF7F1FB00281CBF00994C
:201E5000002905D0A86A18B90820FFF720FF73BD0820FFF70DFFD4E90401DFF8C833C6435D
:201E70009E609E680642FAD1DA680243DA60C8431860586801435960A06805F0B1FB05F19B
:201E90001C00FFF735FB28620020FFF795FF73BD022100F049FD73BDC448416B8A6801F167
:201EB0002803506830B1984218BF0246F9D101E000207047507B10F00F0F02BF488D40F61E
:201ED00009018842F4D101207047F8B5B74EDFF8C00B346A05F038FF0546DFF8B80B026814
:201EF000076802F020022A4018BF002C07F460270BD07462D4E906011143C4E906014FF4A0
:201F1000005106F14C0006F0A9F83D400DD0BA4890F8491041EA554580F8495006F19C00E0
:201F3000BDE8F440002106F099B8F1BD2DE9F041B14E96F84900002448B1002596F849006C
:201F50000121A94008420DD16D1C032DF6D396F8490028B1BDE8F0410021CD4806F07EB8D4
:201F7000BDE8F08196F849101020A840014218BF012406F057F896F849101122AA409143E0
:201F900086F8491006F05AF9E8B2FFF7B3FB00281CBF817A0029DAD090F90980DFF8681C95
:201FB00001EB88010A68016847680D460CB18F6905E0017A022902D1C268D1040AD4FFF7D9
:201FD00060FB3CB100224FF000736FF0FE012846B847BCE700224FF000634146F7E7F8B591
:201FF000724D2C6A00F00AF9002C024628D0100704D490076AD5A86A002867D1002129623A
:20201000D4E90401236A40F00A0632401A432262D4E906673243C4E90627824EF268824366
:20203000F2607268D4E904018A4372602146002205F12C00FFF768FA00F075FCA86A002865
:2020500058D0E168A86AC268914253D1A86A90F82F0094F82F10084310F0070018D0C10736
:2020700001D4810707D5A86A90F82F1041F0010180F82F1005E0A96A91F82F20104381F8B8
:202090002F000022A96A05F12C00FFF73DFA1AE0A86A2862AA6AD2E90401C143B160B168E5
:2020B0000142FAD1AA6AF368D2E904010343F360AA6AD2E90401C9433160AA6A7368D2E91F
:2020D00004010B4373600022AA6213E0D4E9040102420FD06C62D4E90401236A02401A4308
:2020F0002262D4E906011043C4E906014FF4804100F01AFCFFF708FBBDE8F14086E62B48C9
:20211000B0F93010B0F93200814204BF0820FFF7BEBD70470720FFF7C1BBF8B506460F462E
:20213000D6F868C014461D46BCF1000F18BFE047D6E9180104400D400020854208BF844245
:2021500017D0802239463046FFF71FFAC6E91C4538B1D0E90623A243AB43C0E90623B16E43
:2021700041600020B06606F14000BDE8F24005F06DBFF1BD704780B505F06EFFDFF8702CDA
:202190000146506B926CBDE808401047DFF8600C0FF2D142816C914208BFFFF7DDBD042158
:2021B0004C3005F05BBF0000001B0020801C002038B500F023F8DFF8385C0FF2A9410446F5
:2021D000A86C88420AD100F0A7FB02202875FFF763FE18B9FFF798FAFFF718FEDFF8140C32
:2021F000044207D005F14C00BDE834404FF0005105F034BF31BD0000701E00204FF0FF30D5
:2022100005F08ABC80B5FFF7F9FF810707D5BDE804404FF48051DFF8D40C05F01FBF01BDA7
:20223000402108400810044010B5DFF8C44B616B82B04A68516839B1012808BF05F0F8F8B6
:20225000606B416848688047606B42689068002804BFD168002914D0DFF89C1B08680028BF
:20227000FAD000230B60906800B18047606B4068C06800B18047BDE81640DFF8C80C05F0D8
:20229000AFB913BD6C1E002000000440B81E00201C1D00200120030670B5DFF8545BEC6A8E
:2022B000002C78D0A168202000291CBFC2B2002A77D00A8840F603039A421FBF40F60403A3
:2022D0009A424968401EEFD166E000224FF0804304E000224FF0805300E0002394F82F0003
:2022F000010706D594F82F0010F0070F18BF43F08073B4F92C10E0686668B04705F092FEA2
:202310000646688E401CC0F30B0068860020E96A81F82F0005F12C00FFF7EAF800F056F810
:20233000B5F93200B5F93010884234D1E26892F8C210052001B10720FFF7B0FADFF8B00B1A
:20235000E368026D934208BF426D93F8C200002100B91968002583F8C2504AB192F8C200C7
:2023700010B182F8C25003E01068884228BF014619B9BDE87040082089E411F1010F0AD005
:20239000B7480268B1FBF2F1E268BDE8704002F17800FFF71CB970BDE0681822283003F066
:2023B0006BF8226A0020206260680028A6D094F82F1001F00701012904D0022985D00429A7
:2023D00087D08AE700224FF0005387E7304605F035BF38B50D46A807DFF8144A0ED5FFF7A7
:2023F0005BFFE06A38B145F0020104F14C00BDE8344005F033BEBDE83140ADE4680750D58D
:2024100005F022FCA063E06978B1C568606B002818BFA84208D095F82000410704D5EB6949
:2024300000220421284698476563606B4168DFF8BC0B0A780260022004F0EAFE112002F019
:2024500075FE01202075606B017C002919BF607D00280E2002F06AFE606B7F4A4068816848
:20247000002904BFC068002804D00021D161DFF8800B10600720794908600020516950613B
:2024900000219069916150690FF2190140F0804040F00A005061A1641920BDE8324005F027
:2024B000C3BD31BD2DE9FF418046880040F19B800020FFF7B9FE684DDFF8380BDFF83069A2
:2024D0000021E9612860012005F076F90FF29510B06440F60A013180002070800022307BEB
:2024F00000F0F0003073726040F60203707B00F08BF87073D8F808707A80727D98F8110029
:2025100082F001020243388818BF0122984218BFB0F5C15F0AD13B8A4FF6FF3003403B82AD
:2025300072B14FF60F4003403B8209E03B8B4FF6FF3003403B831AB14FF60F4003403B8350
:20255000002088F811003C4640F6040240F60303606800281CBFB0F800C08C4518BF9C4504
:2025700043D0944518BF0446F2D13EE0B8F82800B8B10021A8F82A10C8F82C1008F13400F8
:202590004278017802F0F00201F0F00142F001020170427008F128007060707B00F0F0001E
:2025B00070736946384602F08BFC684605F0D4FB00F05EFAB07E012806D104F0CDF90028B8
:2025D000FBD005F03FFD0BE0012004F01BFF012806D0607B00F018F860730FF23900B064DA
:2025F0000020E8612F60BDE8FF816660607B00F0F0006073F06980680088984218BF90420E
:20261000B4D10020B063CCE700F0F00040F0010070470000DFF8E42B114200D17047012095
:2026300010B504F0EFFE0128DFF8C44707D10FF235010948A1640021C161046010BD0849AF
:202650000A683220B0FBF2F104F1EC00BDE81040FEF7BDBFE81E00200010044000000460F3
:202670006C1E00202DE9F8430C466104DFF880571CD505F0D7FC6F6A9FB13E6AB10710D4C4
:202690000021396205F0DAFD7868002818BF002E09D0B7F92C10F86832467E680023B047F8
:2026B00001E005F0CBFD24F4804428E10646A0006FF480774BD505F0B5FC8046B068018814
:2026D00040F60202914218BFB1F5C15F00F030F9A86B20B3042004F095FE00B3D5F838904E
:2026F00005F0B2FA814531BFA0EB0909401EA0EB090000F10109708AF16800EB1930884298
:20271000F06002D209184908F16040F2D171F068A0F5FA70884224BF40F6C411F16000F0FE
:202730000FFFFFF7B9FB40B100F0EFF8E86910B1FFF712FB01E044F0020430467669002262
:202750004FF080630021B04724F00054D7E0A00707D5FFF7A1FDE86A002801D124F0020493
:20277000CDE060051BD505F05DFCEE69074686B1686B10B1783005F051FCF068686305F088
:2027900063FAE8634FF400610FF2C110A86400F0CBF8384605F052FD24F48064AFE0A0045B
:2027B0000FD56E6A002E1CBF7068002806D0B6F92C10F068766800222023B04724F4005485
:2027D0009DE0E00430D5FFF767FB08B100F09DF800F0A2F80220287540F60202B0680188C9
:2027F000914218BFB1F5C15F00F0A2F800207074EE6B05F029FADFF8F8266B6B176D0421E6
:20281000BB4208BF002146B1864231BF861B401E861B761C5018360B86650020E86324F4CB
:202830008054FFF799FA6AE020040ED5286A816848880028FAD0296A886841880129F5D062
:20285000FFF78AFA24F4004459E0200757D5287E010750D4287E01064DD46846FFF732FA96
:2028700010B10098002846D00026F0B2FEF742FF00281CBF817A002908D00122827290F914
:20289000090002FA00F1C8B2FFF701FA761C022EEBD903202875686B783005F0BFFBFFF761
:2028B0009AF9687E20B9696B01F1400005F0CEFB022004F0D1FA112002F0DAFB696B087CC1
:2028D00010B90E2002F0D4FBA87E012804D10021A976052004F0C0FADFF8500CA86400209A
:2028F00028750220B5F93210B5F93020914208BF0720FEF7D3FFFFF72FFA24F0080414B18F
:20291000214600F011F8BDE8F1833946B76900224FF00073304638470022DFF8141C05F1A7
:20293000800005F085BB022105F14C0005F096BB05D1028A2D2161F3091202827047028B40
:202950002D2161F30912028370470000F0B50446080585B07AD5DFF8986404203075706B77
:2029700090F820104A0703D5C3690022042198470022DFF8C01BDFF8C05B06F1800005F0E2
:2029900057FBDFF8B80BB064706B40688168002904BFC068002804D00021E961DFF8500613
:2029B00028600120FFF740FC0020E86140F60202DFF8400628600020A1680F4678800888DE
:2029D000904218BFB0F5C15F05D10A8A4FF60F4002400A8204E00A8B4FF60F4002400A83D1
:2029F0000120607440F6040240F60303486878B3B0F800C040F60A0EF4451CBF9C459445FB
:202A100026D00146F2E7208DA8B100226285E26204F134004378027803F0F00302F0F00215
:202A300043F001030270437004F128004860487B00F0F00048736946384602F041FA6846FF
:202A500005F08AF900F014F8E9612F6005B0F0BD00204860487BFFF7D7FD4873F069806866
:202A70000088984218BF9042CDD10020F063E2E7E8690028FCD00021E9617047DFF8841B84
:202A9000086A002808BFFFF767B90020FFF794B920000E000C10044030B585B001F030FE85
:202AB000DFF8640BDFF8645B0168D14C41F002010160684605F060F9A878DFF8541B02901B
:202AD0006A4604F14C0003F083FF684605F01CF92978DFF8402B019100208DF808006B46F5
:202AF000192104F1800003F045FE684605F044F9E878DFF8241B02906A4604F19C0003F0C5
:202B100067FF684605F000F901208DF808006B466878DFF8082B01901A2104F1D00003F0D6
:202B300029FE00230022DFF8F81A04F1EC0003F067FC0023DFF8EC2A042104F5887004F0DF
:202B500063FD0020A082A0750721DFF8DC0A01700021A176A163052161640021217605B0C4
:202B70004FF4FA7101614161DFF8C009A06430BD2DE9F041DFF88C6A0546F0690C460027D1
:202B9000844290461AD100F0B5F918B394F82F0040F0040084F82F007F1C06F11C00FEF7F8
:202BB000A7FC0022214606F12C00FEF7ADFCF4695FEA0800E7D13846BDE8F081F16931B1E2
:202BD000086820B10A68A24201D00968F7E70C4600E02468002CEED0216800F08CF9002860
:202BF000F7D0216891F82F0040F0040081F82F0006F12C000A6822607F1C0022FEF784FC98
:202C10005FEA0800E8D1D6E7943004402DE9F0478046894602F001040327560805F002FA83
:202C300019F1010F06F001068246714D07D1296AFEF73DFF00280CBFE869286A04E000226F
:202C500049464046FEF7A1FC68B390F82F100A0628D5296A884216D190F82F100122A240BE
:202C7000114380F82F10002C14BFDFF8C009DFF8C00904F0B5FC300012D0E96932464046F3
:202C9000FFF776FF0CE0014632464046FFF770FF40B1287D012818BF042801D0FFF743FE59
:202CB000832700E00427504605F0C8FA3846BDE8F08710B50C464E490A7D022A0BD104F037
:202CD0008FFC04B1206000F0FF00012801D1812010BD022010BD012010BDF8B504460D46A5
:202CF000164605F09FF90746DFF81809416B8C4218BF032404D131462846FFF7DAFF04464B
:202D1000384605F09BFA2046F2BDF0B50746DFF824098BB00E001546006818BF002D1C461E
:202D300062D03278D040C0075ED50021284601F0F7FE7E60BD6005F075F92D4E0546707E16
:202D500002284FDA08B9FFF7A7FE707E684901EB8001401C0F65707600F050F834B903A822
:202D70000FF604111C2202F087FB03AC2068DFF8C81838600A466068F8600B46207C3874E8
:202D9000A069386201207874608A7882E06800B10246BA61606900B10146F961A06800B15F
:202DB00003467B61A02107F1280002F0E1FD002107F1400004F052FB684605F0F7F8029768
:202DD0006B460022DFF8741807F1780003F018FB6B460022DFF8681807F19C0003F010FB7B
:202DF000384602E000F00AF800200BB0F0BD0000801C0020020000401C100440284605F018
:202E10001DBA70B5DFF8FC47617E00296CD00546B4F93000B4F93210884213D004F11C0172
:202E30002846FEF792FB20B9216A00F064F848B1206A38B1B0F92C1000224FF0E04328469F
:202E500000F084F905F0EEF80646DFF8F807016D8D4207BF0021016500214165607E401E6B
:202E70006076C0B258BB207D6563022809D10820FEF70DFFFFF7AAFA00F0C2F905F0D2F851
:202E9000064604F14C0005F0E3F804F1800005F0C7F804F19C0005F0DBF804F1D00005F089
:202EB000BFF804F1EC0005F0B1F804F5887004F0B3FC287C012804BF0E2002F0D9F8606BEC
:202ED000A84204BF00206063FFF780FA05F1400005F0BAF805F1780005F098F805F19C0080
:202EF000BDE8704005F092B870BD0000CC1C0020701E002021462846FEF7F2BAF8B505F033
:202F100091F8DFF80047217D022905D1DFF83827146805F093F913E005F090F904F094FE31
:202F300010F50032DFF8240741F10003A0FB026700FB037721690020341847EB01052C46FA
:202F50002046F2BD010007062DE9F04F83B080460D4693469A4605F065F801906FF0010998
:202F7000FEF704FB04003AD0DDE90C6708F1780005F054F8DFF88C36188E401CC0F30B00FB
:202F90001886A560202104F12E05394085F800B0C4F804A06A46188EA085C4F80C80DFF875
:202FB000B0063040C4E9040100206870C4E90600214603F11C00FEF7A7FA80B1687840F030
:202FD0008000687008F1C000A18D0180002181709DF8000008B1FFF751FDB4F92C9001987B
:202FF00005F02CF94846BDE8FE8F0000D02108405100070601010E042DE9FE4FDFF8448638
:2030100005460F461446994605F00CF8D8F8501083468D4208BFD8F8541001A8029400903C
:203030003A46029B2846FEF744FD040008F180066FF0010A0FD1307940F004003071C8F8B4
:203050007850584605F0FAF89DF8040002285ED16FF0020071E0CDF8009005F1780004F0B8
:20307000DDFFDFF8A095A08DA9F83000A76004F12E07029801793970202100986060E5608E
:20309000DDE90C23DFF8C80510401940C4E9040100207870C4E9060002984179012903D11F
:2030B000787840F010007870584605F0C7F87079042806D1B278B6F90010D8F87C0000F085
:2030D000FCF804F0AFFF80467079C035022802D100F035F828E001280AD109F1EC0004F0A6
:2030F0009DFF00F02CF8D9F82000E8B900F028FA7079002818BF04281BD10DF10502214600
:2031100009F11C00FEF700FA18B900F019FA504613E0A08D28800021787840F080007870BF
:20313000A9709DF8050010B900F00AFA03E000F007FAFFF7A3FCB4F92C00BDE8FE8F7878AB
:2031500040F0800078700021A97070472DE9F0410C46002C16461F4601D500201EE0054611
:2031700004F078FF8046802221462846FEF70DFA040003D094F82F00010602D400F046F8FE
:203190000BE094F82F0010F00F0F09D000F03EF894F82F0010F00F0FFAD1022000212BE06A
:2031B000D4E9060146F00A06304039400022914208BF904210D000F029F8D4E90601304059
:2031D0003940C5E91C01D4E9062322EA000023EA0101C4E906010DE06168DFF8780481421A
:2031F00002D06168A9666060C5E9186700F00EF800F006F8D5E91C01BDE8F081040000202F
:203210004FF0FF3105F1400004F064BD404605F011B8DCB500F011F8FFF796FE04E0DCB517
:2032300000F00BF8FFF7E8FE0146204602B0BDE8D04000224FF0E04388E7DDE90667CDE9BF
:2032500000670446704770B5FEF71EFD0546DFF8B4630120B07504F19C0004F0DFFE00F0F0
:2032700025F810D1307D02281EBFDFF8D81391F88400002807D0FFF7C1FD0720FEF70EFBE5
:2032900004F0D0FE054600F011F807D104F1780004F0C4FE0820FEF7FAFC02E0012084F88B
:2032B000C2002846BDE8704004F0C8BFB6F93200B6F9301088427047A8E442F00202A5E462
:2032D0000FF2A4311C2202F0D7B800E000BF002203E580B56A46DFF88013FFF7FEFC8128B8
:2032F00003D100980002001602BD6FF07F0002BD2DE9F0478A461446832504F093FEDFF863
:203310004483C04FBAF1030F814608F1480664D8DFE80AF002090C13386A10B1396A888DBA
:2033300002E080255AE03078208057E0387D02280CBF01200020207050E02468502120462F
:2033500002F016FB002106F10802080152F82120225004F10C0C0C224A434244491C92F8F5
:2033700068300CF8003004F1040C536E4CF80030126ED31804F1080201291350E3DD386ADE
:20339000A0B13A6AD3680801491C235049B23A6A92F82E3004F10C0213543A6A536A221D7B
:2033B00013503A6A936A04F108021350F869A8B1042913DC0A01C368A35004F10C0790F808
:2033D0002E30BB54271D436ABB5004F10807836ABB50491C006849B2E9E70325484604F036
:2033F0002DFF2846BDE8F08780B58022FEF7CDF800B1806802BD194613460A460121FEF7FF
:20341000C0B90B460221FEF7BCB910B54FF6FC742140BDE81040914B002219435DE4F8B52D
:2034300005460C4604F0FEFD0746E0B2FEF762F9802604001CBFA07A00281BD07149087DD0
:20345000022811D194F90910491D0906090C41F08161002241F001012846FFF73EFC0646CE
:203470002046FEF70EF905E02046FEF70AF9FEF773FC8326384604F0E1FE3046F2BD000014
:203490002DE9F843054689461646832404F0CAFDB9F1060F80465B4F42D8DFE809F00407DF
:2034B0000D10131F2E00306828603AE001206874E8686030E86034E03168698231E03068DF
:2034D00078642EE0306818B98020FEF7D1FB28E0012825D18020FEF7DAFB22E0397D0029B6
:2034F00004BFF86900280ED13168192004F0A2FD31681A2004F09EFD13E0397D002904BF35
:20351000F869002801D000240BE0316807F14C0004F0A6FD316807F19C0004F0A1FD00E01F
:20353000032400F00DF82046BDE8F283E3230000EF1F0000152200000010044075260000A5
:20355000404604F07BBE2DE9F84F0E4631684FEA910A43498A4502D2317A022901D0032091
:203570002FE0814604F05EFD364C8046606D0027814508BF012787F0010004EB8001B9F193
:20359000000F0D6D04F1800B04D009F19C00FDF727FD58B9BDB105F19C00FDF721FD28B98C
:2035B00002212846FEF716FA05000DD19BF80400C4F8789040F002008BF80400FFF7C0FFB9
:2035D0000020BDE8F28F02250C204743E019316840F8601F317A017222480168BAFBF1F1E7
:2035F00009F19C00FDF7F3FFFFF7AAFF012D06D19BF80220BBF90010E06FFFF75EFE8320DE
:20361000DFE70000801C0020002009406285000087210000C12100003D1F0000DB1E0000E9
:203630009D2100006B180000B81E00200100020401000104D4210840852100000F21000023
:2036500025210000701E00200430044000093D00FDEFFF9F2B2100000100030401000406BF
:2036700041420F006C1E0020FFFFFFFFC4090000000000000000000001003A0100000000F9
:20369000000000002DE9F04F08250127ADF1440DADF800506846ADF8027003F00DFBA14CDF
:2036B0009DF804002070029804F12C060021A060304604F0BBFD9C494FF47A72042304F19D
:2036D0008000E66002F0E4FE00261F200621666003F0D8FA5020ADF81E008DF83A70ADF822
:2036F0001C6039468DF83B700DF13A02ADF822604FF44870ADF820004FF47A70ADF8240078
:2037100040F20530FDF748FB40F20630022107AAFDF742FB4FF442701E2104F16102FDF70E
:203730003BFB40F20730072104F11C02FDF734FB4FF4447039460DF13B02FDF72DFB40F27D
:20375000113002210DF11E02FDF726FB40F21230022108AAFDF720FB40F2133002210DF1D4
:203770002202FDF719FB4FF44570022109AAFDF713FB6E49032003F067F90620A02103F036
:2037900081FA0720A02103F07DFA2846A02103F079FA0920A02103F075FAB0468DF83C7044
:2037B000B9468DF83D704FF48160CDF8188004218DF83E8006AA8DF83F9003F049FA4FF462
:2037D000806039460FAA03F043FA40F2024039460DF13D0203F03CFA40F2034039460DF146
:2037F0003E0203F035FA40F2064039460DF13F0203F02EFA032003F07DFB042003F07AFBEC
:203810004B484C4A132103F011F8ADF80C504A4D4FF0040A2878ADF80EA08000049003A8A8
:2038300003F04AFA00280CBF059F371C434EB76087B12B7843B14FF6FF713F1F404627F828
:20385000041F5B1EB870FAD13D4A06F13400112102F0ECFF3B490DF12600142201F00CFE2F
:203870008DF84080404614210DF1260201F094FB484610AA014601F08FFB0220494610AA1D
:2038900001F08AFB032014210DF1260201F084FB04F11800AF78706027BB04F1140095F838
:2038B00001B0EE786862182003F055FF071C19D05146424604F0FAF9584603F0E1FE38726C
:2038D0007E724046B87205F14803FB6005F158023A6105F12001796103F04DFF1A4A39469E
:2038F00003F0D0F80C2003F036FF071C0AD04946524604F0BBFA2434BC6003F03CFF3946BB
:2039100003F054FD4846102103F00EFB0220102103F00AFB0D4942F22F0003F0CBFD11B018
:20393000BDE8F08FEC0500206D7C0000C97F0000080A00201485000008020020380B0020B9
:2039500020850000EC840000D57F0000B57F00002DE9F047DFF80CA20746AAF13500DFF8F4
:20397000F8810068800880F0E78003F025FE814908310B6800261C17641C990D0AD2C0F15F
:203990003E0110F10A0F4FEAE101D8BF08218C42B8BF0C1CDFF8C4C1990E0FD2590E0DD34B
:2039B0006246143A1168C1F304211629A8BF20391268C2F30462162A0EDB0CE0634AD2F88F
:2039D0007C11C1F304611629A8BF20391268C2F30442162A00DB203A09199146162905DA31
:2039F00011F10A0FB8BF6FF0090100E01521584C584D01F01F0242F4F85222802A6812F095
:203A1000030F18BF0126D20828BF46F002060FB146F00406424692F90740041B052C04DAFF
:203A30009479B44208BF918866D00F28A0F10F0827DB08EB0014A4F1F0084FEA282EBEF1AA
:203A5000070F88BF4FF0070E7546062D88BF06255CF82570042404EB850465462C59E41B8D
:203A700004F0FF05F70824BFC4F307273D44B70824BFC4F307473D44770828BF05EB1465FF
:203A900001E00025AE465CF82EC0F7080CF0FF0424BFCCF307273C44B70824BFCCF30747DD
:203AB0003C44770828BF04EB1C64ADB2A9EB0101A8EB0E277D43002905F1800504EB152458
:203AD000D8BF012103F0FF0334254D43A9B259434FF6FF73B1FBF4F18B4238BF191C80285F
:203AF00089B2918005DA10F1800FB8BF6FF07F0000E07F20D0719671194800681F2910605E
:203B10004FF0000008D340F2FF128A4206D24908401C8A42FBD301E01F219180124F0F3972
:203B3000090940EAC10047EA0001CAF8FB1F0026CAF8FF6FBDE8F0870C490D4F4246082097
:203B50000F60921D1070BDE8F087C0463C1100506E62084024220840141F00209C13005000
:203B7000082009403500094000E7A48030100940FDFDA400AC3F005001282DE9FE4F40F01D
:203B9000EE80DFF810B2DBF8DC00012840F0E4800220CBF8DC0003F01FFE012002F026FD9B
:203BB0005FEA000805D00120CBF8DC0003F024FED7E004F04FFA6C49029000200860012016
:203BD00003F020FC012818BF002003D1002002F05FF90120654900900020654F086038682D
:203BF000112004F08DF900280CBF00240124102004F086F908B144F002040F2004F080F99C
:203C100008B144F004040B2004F07AF930B1624814300068574E016B308888470A2004F020
:203C30006FF9002600B101264FF0805A0AF5DC75301C04D02868504E016B308888474F48CD
:203C5000012606602868816944F0200088474C48066004F04FF900F001010191400814D242
:203C7000484804F0CBF88146B9F1040FF8D0B9F1010F05D1DAF8D801426842480321904737
:203C90004149086820F0030008600020FFF760FE2B683868986B8047019801280DD0B9F1E5
:203CB000010F05D1DAF8D80142683648314690473549086840F0030008602C4806602868FA
:203CD0004169204688470B2004F01AF920B12868284BC16A188888470A2004F011F920B15C
:203CF0002868254BC16A188888472448032206602349CBF8DC2000230B602868416B2046C8
:203D100088470128F9D13868042002F06FFC044615481E490660386808688009FCD300983C
:203D3000012802D1304602F0B3F804F0D7F8082002F05CFC07460298CBF8DC6004F07AFAE1
:203D50001348008801F0A2FF03F056FD57EA040018BF4FF0FF3804E06FF0040801E06FF077
:203D700001084046BDE8FE8F0C400940000222432C2009404E8300004A8300002820086093
:203D900080010443004003402422084014100940CC840000900D0020A40100102DE9F041C4
:203DB0001C4615468C4208BF854282BF00230022E5E0002C08BF002D0AD100290EBF002876
:203DD0006FF000006FF0000100F0E1F8BDE8F0815FF000085FF0000E002C08BF8D429CBF64
:203DF0002C1C0025070C47EA01470E0CB44208BFBD429EBF5FEA044444EA15445FEA0545DC
:203E1000070A47EA01670E0AB44208BFBD429EBF5FEA042444EA15645FEA0525470847EAAC
:203E3000C1774E08B44208BFBD4200F29380870847EA81778E08B44208BFBD427CD8C708F6
:203E500047EA4177CE08B44208BFBD4266D8070947EA01770E09B44208BFBD4250D8470995
:203E700047EAC1674E09B44208BFBD423AD8870947EA81678E09B44208BFBD4224D8C709EC
:203E900047EA4167CE09B44208BFBD420DD8E60146EA5566EF01B14208BFB84201D3C01B9C
:203EB000B14158EB08085EEB0E0EA60146EA95664FEA8517B14208BFB84201D3C01BB1414C
:203ED00058EB08084EEB0E0E660146EAD5666F01B14208BFB84201D3C01BB14158EB080840
:203EF0004EEB0E0E260146EA15762F01B14208BFB84201D3C01BB14158EB08085EEB0E0E3E
:203F1000E60046EA5576EF00B14208BFB84201D3C01BB14158EB08084EEB0E0EA60046EAEE
:203F30009576AF00B14208BFB84201D3C01BB14158EB08084EEB0E0E660046EAD5766F006A
:203F5000B14208BFB84201D3C01BB14158EB08085EEB0E0EA14208BFA84201D3401BA1419F
:203F700058EB08085EEB0E0EA34208BFAA423EBF2D0A45EA0465240A89D3734642461E46E6
:203F900017460B46024631463846BDE8F08170472DE9F04FADF1240DFFF774FB724C0826E4
:203FB0000A20ADF80200ADF800604FF0FF370197684602F081FE002840F09F8000200790C1
:203FD000ADF810600927ADF8127004A802F074FEDDF818800028CDF81C8040F08980BDF871
:203FF00014000127102852D120789DF8161088424DD1454628884FF6FF71814217D02878A5
:20401000B02844D1687816280BD16888314603F075F930B9384603F037FA0798002720610F
:2040300035E0297905F1080003F0FEFC2FE0688800092CD3256955B36078B5F802B0401C9E
:20405000607095F804A0102003F085FB05F10809051C1CD00221152203F008FFA5F808B0EF
:2040700085F80AA0C5F80C9003F085FB404A294602F008FD0546162D09D0042D07D0206955
:204090004088002103F03AF9284603F0FDF9079800282DD067B3404603F0F6FC28E0E06811
:2040B000054604F0BFF8854208BF002702D0876803F0DEFC381C1BD03888401E0CD0401E20
:2040D0000DD1B87818B1801E09D1022000E0002008A902F00FFB02E0B87800F099FDADF875
:2040F00008600520ADF80A00039702A802F0E4FDE06804F093F80028D1D06088C108FFF429
:204110004FAF20F00400608003F006FF174807780DF12101012002F0EDFA0025C8B99DF872
:20413000210020F01F00874213D01249284602F0E1FA022001210DF1210200F02DFF9DF8C7
:2041500021509DF82100094905F01F0500F0E0000870291C3FF424AF14293FF721AF054A98
:20417000032000F019FF1BE7EC05002065120020457E0000240600202DE9F04FADF1240D29
:20419000079000F0BDFA6148007803F025F9604D0024012808D90A380FD0801E04D0401ED3
:2041B0000ED0401E09D006E003F09EFC022804BF01210C1C06D0696805E005211F2401E05A
:2041D000032107246960534A1068C0F38150012806D152F80C0C0127020E07FA02F004434A
:2041F00003F0C2FD524AFF234018401E471C28607F1E02F8013BFBD1079A1268002702F0CB
:20421000FF03FE2B20D0DDF81CC096463B4601260EF0FF02FF2A10D0904205D3914203D8DE
:2042300006FA02F2144201D002206CE017430EF0FF02DFF8FCE00EF802305CF804EF5B1CE3
:204250000EF0FF02FE2AE5D1092000F06FFF07980121A86005F1280003F000F905F1980683
:20427000A8464FF0010A4FF0040B0025A9460AFA05F0044216D1074204BF05F0FF0141F438
:20429000C04104D02A480799405D51F82010224800F0A8FDE8B24FF0FF3103F049FBC6F814
:2042B000009001E0C6F800B0D8F800006D1C361D8542DCD904A803F027FD184C184A2078C6
:2042D000102104AB059008F10C0002F053FA684603F052FDCDF80C906A4660681149029060
:2042F00008F1640002F074FB0F4951F80D0C20F4F85040F4005041F80D0C0C4FC1F8FFAF42
:204310004846C7F800A009B0BDE8F08F201F00207C0C0020B43F0050007FC7674485000003
:204330005D790000C56600000D30094008000940C00C00202DE9F843614C5A4D5A4EDFF885
:2043500070815E4F94F8E4100846401E0B2864D8DFE800F07B2C43062343062343067664BB
:20437000042907D001220A2945F8212C14BF0220032004E0202045F8210C0120024684F8BE
:20439000E200002045F8390C0827C5F8FF7FC5F8F37F45F8392CBDE8F883052914BF092004
:2043B0000620002784F8E400376075E094F8E170383D0120002FC5F81B0004BF06200021D0
:2043D00002D00021F160032084F8E400032045F8010C3160306880085ED294F8E4103348BD
:2043F000012703290ED00068456800216022052300914046A84794F8E400062814BF0A20FA
:204410000720CFE700684568002160220523022000904046A8470420C4E7FEE72548264F12
:204430000026012506600E203D6000F021FE022002F012FD84F8E45084F8E360BDE8F8832E
:20445000002038600C25786024E04FF08059D9F8A0010168202088472C3D0F2045F8010CA3
:2044700041F61D56C5F80360D9F8A401466800214FF4C0720723022540460095B047D9F874
:20449000A401C66800214FF4C07207234046B0470120386084F8E45004F1780003F0BCFD7A
:2044B000BDE8F88339400C4038600C40A401001000A00C402C500C4004800C4034600C400A
:2044D000900D00202DE9F04F0C464549CA7AADF12C0D84460592487B09900D7900958A7AE3
:2044F000488B4B8A0E7B91F805A091F802800492B1F846E008904A7A088B0392CD7807907D
:204510000A7AC88A02920F6A0690CA79888A01928A79E146A9F54079B9F11D0F10D8DFE824
:2045300009F05B5553514F4D4B494643413F3C3A380F34312E2B2923201E1C0F1918171657
:20455000BCF1280F49DA604602F052F921E0099EB246D046CDF814801DE00898079007987F
:204570000690DDF818E005E03831086820608888A08032E070460AE0B1F8440009E0B1F829
:20459000420004E0B1F8400001E091F83E00034612E0208021E0059804900498039001E037
:2045B0003231E2E7039802900298009006E0019A87310DE068310BE01846EAE7009D0BE007
:2045D0002C31D2E7276008E0583100E048311022204600F051FF00E025700BB0BDE8F08F38
:2045F00008020020364AF8B5101D0368B3F1FF3F08BF002303F08EF9012860D1314E106825
:204610003268070F02F0FF02802A28BF002203F081F94FF0FF31012805D1381C4FD0801E48
:2046300004BF143251B2142949DB27482749002501270560264E0F60264C376020680028D0
:20465000FCD1274A161D2449244F306820F0030001433868C0080CD2106810F0030F0AD060
:2046700041F003003060106800F003000328FAD101E041F001011B483160006820B11A4862
:2046900000681846FBF7B8FF184819490560194F0A686FF35B4247EA020008601649086831
:2046B000C0F30130012806D10A681448104040F400320A60086020680028FCD1F8BDFEE799
:2046D00018130050A0100050840460425C600C40082204430C00684204000020B03F005093
:2046F0000040034080012843000120438C210840482003400000390104000940FFFFFCFCBA
:204710002DE9FF47424C94F8E70000286ED10127384D84F8E770E87C84F8E6006E68C4F8ED
:204730001061684603F042FC002604F10C0001966B468DF8006030490296324601F060FEED
:204750002E4904F130006B46324601F059FE2C4904F154006B468146324601F051FEA9683D
:2047700038468847DFF8A48026482A7D08F104030078254D1868C0F3815A22B1BAF1030F44
:2047900004D184F8E170BAF1030F15D0BAF1020F12D0BAF1010F0CD0022002F039FD042022
:2047B00002F030FE012804D028683221B1FBF0F10DE002F02BF912E0022002F029FDBAF182
:2047D000030F0CBF4FF47A7142F210712868B1FBF0F1484603F01EFC484603F01DFC404631
:2047F0000068C00802D2304602F012FD00200090BDE8FF87BC8400002B490000A5520000A8
:20481000D55D0000201F00206C1E0020B03F0050900D00202DE9F0430646ADF11C0D03F002
:20483000F9FC02F0ADFC4FF000090546CDF80C9003F084FB30F0010002D00398A84202D127
:204850006FF0040066E070684C4658B1B0F1FF3F05D004A902F07CFC30B1804659E04FF042
:20487000FF3000E02046049003F0D0FC04994FF00108471802E00A463BE0049368680499CB
:2048900003F0C0FC00282DD0684601F078FCD8B99DF8040005A902F029FA88B9B368BDF823
:2048B00014009DF80610029A984748B1BDF814009DF80670B081029BB773C846336111E056
:2048D000029903A802F046FD0498641CB0F1FF3FD4D00028D2D003F099FC3B1A02D0049899
:2048F0009842CAD2039F03F077F805F1080647B13A4652F80C1C0029BDD1316842F80C1C8E
:20491000376003F069F924B1686803F077FC641EFAD1404607B0BDE8F0837047F8B537480B
:20493000354908603648FFF727FC364C201D04F1100100F0EFFD05210023334A206004F10E
:204950001C0002F061FE4FF08055D5F8D8012F4C036801210A4620469847D5F8D801426833
:204970000121204690472D4C0026032004F1180141F80C6F401E8E60FAD1241F062704F1C8
:204990004C0001467F1E21F80C6BFBD10821204F0180204B204A876004F12005181D20F047
:2049B00003000346121A62621946E0611F462062801801E041F8046B8842FBD8901022F0B4
:2049D0000302E82103EB800040F8046CEC3A39603046C3F8E820E833636100F04DFFA0618F
:2049F0002868606101F0B2F801F044FE01F0D2FF03F000FC3046F8BD68120020316500007C
:204A10001084000058100020B576000000400340A9770000211F0020183F0020A80E0020EF
:204A30002DE9F8431E46804608AFDFF8F0900B783888022B4FF0FF0762D14D686B782D78B8
:204A5000002405EB032542F60213ED1A28D04DF2EF63ED1A0AD06D1E50D100284CD1012E2C
:204A700048D11078C968012708704CE018B9142EC8BF0D2400E00B2411464D46324605F156
:204A90000C0000F0F9FC142E08DAAD190020C6F114030C355B1E05F8010BFBD1002732E075
:204AB00050BB022E26D15078157805EB002535F001061DD1C86806684046314602F0BCFEE9
:204AD00000280CBF201C807885421AD04046314602F0B2FE50B931464FF6FF7002F0ACFE7F
:204AF000002808BF11240CD0A0F80080857008E0802406E00D2404E00B2402E00A2400E0F3
:204B10000124FF2F07D04D462D1D286818B1016809B1384688472046BDE8F883380B0020CC
:204B3000F8B501460888A0F6020058B143F20402801A04D0401E64D191F8246000E00226EF
:204B5000CF6901E0CE7B4F69002F5AD000213C1F052244F23805084654F8043FB3F1FF3FFD
:204B70004FD01B041B0C9D4206D0521E01F1040100F10100F0D144E08446BCF1050F40DA28
:204B90007A58224B3046C2F30344401F17D01E49401E0FD0001F0BD0801E07D0C01E0AD043
:204BB0000F381ABF191C6031091D04E0091F02E0083900E00C390868C0F3834003E019465D
:204BD0000868C0F303200F2806D0A04217D922F4702242EA004210E0761F0AD0761F08D0BE
:204BF000761F06D00F3E1CBF22F4702242F4802203D122F4002242F4E02247F82C200020A3
:204C1000F8BD0120F8BDC046041100502013005010B5401EADF1300D3FD0C01E36D0401EBC
:204C300037D0401E61D103F077F900208DF82800082002F090FD041C0CD00121182203F0AB
:204C500015F902F098FD0AA90123294A0091214601F036FF102002F07EFD041C10D0012188
:204C7000192203F003F99DF82800401E208101AAE26002F080FD1F4A214601F003FFA0B3CC
:204C900006A940F21530FFF71DFC2EE01A4803F0E9F9142002F0F8FB27E04FF4417008A9C5
:204CB000FFF710FC9DF821408DF805409DF822308DF8063000228DF808209DF825108DF862
:204CD00007209DF820008DF80B109DF824408DF804009DF823308DF80A4008498DF8093000
:204CF00001AC22680A60606848600CB010BDC046617E0000537E00006C0600207309002026
:204D1000F8B503F0E5F800F0F5FF03F0F3F8054605F00C000C2853D0E80826D202F0F6FBD6
:204D30002A4E376804460120014602F0D4FD31686143884219D22649F020B0FBF7F0241A96
:204D5000887C18B1C868A04238BF041C214D2146284603F04BFA284603F044FA0120FEF71D
:204D70000BFF284602F098FD2CE0280928D21A4803F044F80428FAD0184A690905D220B1EA
:204D90001168104621F0010103E01046016841F001010160983210684FF0805540F0030062
:204DB0001060D5F8B8018169202088470C4CD5F8B8712068B86B804701202060206801E02A
:204DD000FCF7D6FA03F08AF8F8BDC04680850000BC8400009C0D0020004003408C2108404A
:204DF0002C2009402DE9F0470D4606465FFA85FA280824BF2E4845402E494FEA8A03C858DF
:204E100085EA00023240C2F300672B4A06EA0504B043224006F4E0240243B4F5E02F01D1F3
:204E3000500E14D306F4E020074310D002F4E027B7F5A02707D0B7F5803704BF22F4003244
:204E500042F4A02203E022F4803242F4C022DFF86C80CA5008F1D00739680122002002FAFA
:204E70000AF40C4218BF101C5FEA000906D1F00D04D34146C5F3805001F80A00300E0BD3A8
:204E900003F0D0F8290E34BF0021211C3A68A2431143396003F0D2F9B9F1000F06D0F00D01
:204EB00004D34046C5F3805100F80A10BDE8F087006000A000100840007F077F002002400F
:204ED00080B50288A2F602073FB143F20502BF1A14BF002290F8242000E0C27B2D482430B6
:204EF000D0F88832521F0B6048D0521E3CD0121F30D0921E24D0D21E18D00F3A0CD0D0F816
:204F100090224A60D0F894228A60D0F8BC0220F0784040F080503AE042694A60C26A8A60EA
:204F3000406C20F0784040F0704030E002694A60826A8A60006C20F0784040F0F04026E078
:204F5000C2684A60426A8A60C06B20F0784040F0C0401CE082684A60026A8A60806B20F0D3
:204F7000784040F0A04012E042684A60C2698A60406B20F0784040F0405008E002684A60CF
:204F900082698A60006B20F0784040F02050C86080BDC046A01000502DE9F84F324D0C46C0
:204FB0000028114657D0401E51D0401E47D0401E58D1142C56DC05F120002246064600F094
:204FD0005BFA142C07DA00223119C4F11400401E01F8012BFBD1AF68002F43D0234801788A
:204FF0000024AA464FF6FF7B8046A1423ADDA000C519385A83451DD0A878D8B10AF1340071
:205010001121C268964204D0491E00F11000F8D110E08146A878410805D3288801214A46ED
:2050300000F0E6FBA878800804D3288802214A4600F0DEFB98F80010641CE4B2D5E7012C45
:2050500010D12846401C09780170BDE8F88F012C08D12846F7E7142C04D1284614220C3030
:2050700000F00AFABDE8F88F380B0020080200202DE9B043044602F0D5FF814627482218EA
:2050900092F8EF10491ECFB2002F82F8EF703FD1254901EB84014A880C78904634F07F07C2
:2050B00018D1E1090FD24FF0805000F5DC75D0F8B8018169104688472868416B40468847B6
:2050D0000228F9D11EE000EB8800D0F804110020884717E04FF08055D5F8B801016A10463D
:2050F0008847D5F8B801816A40468847D5F8B801016B404688470A49012008600949086826
:205110008008FCD304F03F00132801DAFFF7B0FF484603F093F80020BDE8B083900D002079
:20513000282008602820084020830000F8B5064602F078FF264D0746711991F8EF00421CFA
:20515000002881F8EF203ED1224C04EB8604267806F03F00132801DAFFF7E8FF648836F0C1
:205170007F0018D1F0090FD24FF0805000F5DC75D0F8B8014169204688472868416B204686
:2051900088470128F9D11EE005EB8405D5F804110120884717E04FF08055D5F8B801C16939
:2051B00020468847D5F8B801416A20468847D5F8B801C16A20468847074901200860074935
:2051D00008688008FCD3384603F038F80020F8BD900D0020208300002820086028200840E2
:2051F0002DE9F0410E462A4990461C4606AF8C4672680878BB8851783F881278002502EB09
:20521000012242F62321521A2AD0521E052A19D9921F0DD0263A35D1072F31D8C7F10700F6
:20523000984298BF83B20CEB070000F1080121E0B84225DBC01B9842D8BF83B22380DCF80D
:2052500004100BE0F06802F027FD80B2B84217DBC01B9842D8BF83B22380F168C9190AE06A
:20527000082F0DD8C7F10800984298BF83B20CEB07010F31238040461A4600F0FDF803E04C
:20529000072501E025800A252846BDE8F081C046640900202DE9F04102F0C4FE254D214E2A
:2052B000804605F1E000007848B93446A168022088470746102001F099F96FB31AE002F047
:2052D00019FEC0091AD218480068C4681748342101220023A04788B100F0A8FD34460020B5
:2052F000A16885F8E000022088470746102001F07DF98FB1A168032088470DE00C4800687F
:205310003221B1FBF0F101B901213035284602F081FE284602F080FE404602F08FFFBDE8F4
:20533000F081C046BC840000A401001000A00C406C1E0020900D00202DE9F04114460F46A8
:2053500002F04CFF1FFA80F81F480068007808B902F026FBE7B138684FF0FF3518B1402878
:205370000AD3810B08D17E681EB1310A04D0310E02D1B9680F2908D93DB10CB12846207022
:205390000820FFF775FE002418E07968BA6803E04FF480700122014601F022FF0B49012046
:2053B00008600B4908684008FCD30A4800684168022088470CB1002121700446404602F015
:2053D0003DFF2046BDE8F08100840000A802504208800240CC010010F0B520480127F8422F
:2053F00001D000F0E7FF204D204F214EBD4206D203CD0478A4003459401CA047F6E71D48D2
:20541000002800D08047164D164FBD4202D210CDA047FAE7F0BD03251BE0416808300A1CA6
:205430002A400BD11A1C2A40AB4305D0046804300C600431043BF9D1131C05D004780130B8
:205450000C700131013BF9D1021C2A4001D0A84304300368002BE0D17047C046FFFFFFFF10
:205470000000000000000000F8890000588A0000B489000055C50110002A4AD05FEA000CB8
:205490008B071CD1830722D1102A08D370B4103A78C978C0103AFBD270BC103238D0042A49
:2054B0002CD3082A05D30C2A24BF08C908C008C908C008C908C092072AD0920F22E00B7836
:2054D0000370491C401C521E22D08B07F7D1C30714D18307D8D0121F12D308C903801B0C5A
:2054F0004380001D121FF8D20AE008C903701B0A43701B0A83701B0AC370001D121FF4D237
:20551000121D05D00B780370491C401C521EF9D1604670472DE9F843234D884606464FF00F
:20553000FF3105F12800814602F0D4FB00200CE0FF2909D02A688A4204D305EB8101D1F808
:2055500098700FB1002627E0401CB8F1000F03D018F82010FE29EBD1002434607460012788
:20557000B46011E0FF280ED005EB80000B787268C0F8986007FA03F0104370600A680949B9
:20559000304601F04FFC641CB8F1000F04D008EB84010878FE28E5D1484602F057FD30461F
:2055B000BDE8F883007FC7677C0C00202DE9F8432020EFF3118780F31188214CA0680121B8
:2055D00002F008FE4FF001094FF0000865692168A4F81C906A1A2168A4F81E80461B401A92
:2055F000904227D387F3118840462D18361A4846294602F0EBFDB042F7D92021EFF311874D
:2056100081F31188E18B012903D14046294602F0DDFDB0F1FF3F06D0A169801B814238BF2E
:20563000081C291801E0A069411902F0CBFDA4F820902560A4F81C8087F31188BDE8F883BB
:2056500078010020B0B50446A768ADF1280D5FBB0C2000F011F9071C1DD0684600212422AB
:20567000082302F0ABFD002306976A466168ADF810301848059302F09DFD386070B90820CA
:20569000ADF824000C25ADF8265009A801F014FB384601F049FE6FF0030018E0E068786004
:2056B0002069B860A7600AE002F096F90546386802F0F2F82069B860284602F08DFA3868D8
:2056D000616802F093FD386802F08CFD00200AB0B0BDC046997E00002DE9F8438146EFF3F6
:2056F0001188202080F311881E4D1A4C184F012605F11C000660A4F114000660F86A016A02
:2057100014208847D9F81000810C14BF000C04202060386802682321002090470E480F4F8C
:205730000660386800280CBF311C03210C4807680FB141F00401183C206820F4E02040EA1C
:20575000014020602E6088F31188BDE8F883C04684010010182009408002244370850000BC
:20577000748500000000244370B51E4DAC68064602F0AEF94FF47A71001B4843030C01F05C
:205790001BFF2969401A48BF404240F6B831F618B14210D306280EDAE9688C420BD82868BF
:2057B00048B1114A091B51438A0C02EB1141884288BF011C08E00D49486840080ED2086844
:2057D0007D2100F0FF004143C82905D3B1F57A6F88BF4FF47A6103E0C82101E04FF4FA61A0
:2057F000084670BDF81E002040420F00AC3F00502DE9F04180461F48001F076815460E466B
:20581000ADF1200D47B106A8009042464FF6FF711B230120B84700E00020059028B300214B
:205830000091BDF81810FF270DF11203024601912946029700F076FC041C11D16889ADF8D5
:205850001000700804D301F096FF1B23074600E01D23404604A93A4600F03EFE041C05D0D4
:2058700004A81B2102F0E0F800E01524204608B0BDE8F081CC110020D0B5001D84B214F040
:20589000030002D0241A241DA4B202F0A5F81849102C02464F690A61C8BF8F693868002375
:2058B0001E46010817D226B9844209D93B46012614E0196809188C4219600FD81F460846DC
:2058D0008FB1001B042834BF3C68385144F000443C603F1D07E080F0004000263F183868ED
:2058F0000028DED10027104602F076F93846D0BDA40E00202DE9FF410E4605461A4C7188B2
:20591000E08A81420CDCB188814209DBF088218B884205D13089618B884208BF18271FD05A
:20593000052000F065FF77888046F188B388ADF80270A08AADF806100C4AADF800003789AE
:20595000ADF8043011216846ADF8087001F053FB071C05D1A57304F1F000414601F024F997
:2059700038460090BDE8FF810802002005800000002213460A46194671B510F0030F0BD0F8
:20599000002A82BF00F8011BB2F1010210F0030FF6D1002A08BF71BD11F0FF0141EA01218C
:2059B000042A18D341EA0141082A0FD30E46102A08D30C460D46B2F10F0312F00F0272C035
:2059D000103BFCD812F0080F18BF42C012F0040F18BF40F8041B12F0020F18BF20F8021B44
:2059F00012F0010F18BF017071BDFEE72DE9F041082504240746ADF1180DADF800500E4635
:205A1000ADF802406846019401F056F900280CBF029B002312498868F3B11F809E708046F7
:205A3000ADF80C500C20ADF80E401F46CE68049003A801F041F960B9059951B18F60304613
:205A500002F0B4FBB8F1000F06D0404602F0D6FB02E0384602F00CF806B0BDE8F081C04696
:205A7000EC05002038B5054601201A4C68712879B0B901F0B1FF2178002904BF6FF00704D3
:205A9000051C15D0491EC9B2217039B902F0A4F8606801F005FC0020687118E0054613E014
:205AB00001F09AFF05462078FF2805D16FF00604284602F091F80BE0401CC0B201282070A8
:205AD00002D1606801F003FC284602F085F80024204638BDF811002070B50646B079F468B0
:205AF0000628A4F10C042CDA3079062829DA01F073FF154DB27991000C3501EBC201491910
:205B10004968E1B102F068F830792071B0796071307AA071B179880000EBC1004019F168E1
:205B30004068083001F016FCB179880000EBC10040194068406802F061FB002070BD02F0DE
:205B50004BF86FF0020070BDE40E0020B0B5ADF1400D02F027FB044600213C22082368464C
:205B700002F01CFB1148416806918168006804900F480068002205900E480891694602F088
:205B900009FB071C0DD001F027FF0546384600F0C5FB30B1284602F01FF8204602F0F6FAC1
:205BB00001E000F019FB10B0B0BDC04654820000A80E0020497D000098B5164C94F8E1002F
:205BD000002710B91448007860B102F02BFA94F8E310002906BF012184F8E310012702F0B1
:205BF0002DFB0FB1002098BD022001F011FB0E20FFF79CFA094A106848B909494020C860B9
:205C100008600127D761002084F8E20098BD012098BDC046900D0020D184000004800C407B
:205C30002C500C400146184880B5383000688A0CC0F38367C0F38F2022D241F307210029D2
:205C50000BD54A420021400805D17F0806BF0127381C4FF6FF70521EF5D1002910DD4FF67C
:205C7000FF72400040F00100824207D2780040F001070F2F92BF01200F27101C491EF0D1AB
:205C900040EA074080BDC0461813005098B5184B04461B1D18680004070C25D001F08CFC8E
:205CB000124991F90720824205DD10F1800FB8BF6FF07F00C871BC422CBF01273F1B8C8885
:205CD000BC4210D80A68D3F8D40F801A801C1F2888BF1F203F1B4008C7404FF6FF70E7194E
:205CF000B84238BF071C8F8098BDC046141F002030100940164880B507683FB315498B68F5
:205D100003EA5300C00E21D2134A106880081DD2486880081AD21068096810F0050F4FEACC
:205D3000114101F0F00101F5E0710AD1B9420DD2190F38BF40F00100D90E38BF40F00400C1
:205D500003E0B94202D920F00500106080BDC04628500940AC3F005000000940F8B58446F6
:205D700040F6FF741CF8013B002210E0481B401E10F8015B7F1E01F8015BF9D103E01CF830
:205D9000010B01F8010B521C5B08082AEADA5808F5D21CF8010B1CF8015B05F00F07FF1C3E
:205DB000C5F30315122F45EA001508D11CF8016B300A24BF1CF8010B60F3DF16BF19AC42DA
:205DD000D4D1F8BD10B5042001F01CFB022821D003281FD001281AD011480068C0F38150DB
:205DF000032805D002280CBF41F28832322201E04FF47A720B490C4C09684C342046B2FB9D
:205E1000F1F102F007F9204602F006F910BD00F0FDFD10BD00F0FAFD022001F01DF810BDE7
:205E3000B43F00506C1E0020980D002038B5012001F0E8FA012820D0114DD5F82401C4682A
:205E50001048342101220023A047002808BF002014D0286801F0ECFB01F03AFE0B4A0A4D28
:205E700093681168D060C01AA1EB910105FB00F3180C884228BF011C1160012038BDC04604
:205E90008000001000A00C4040420F00F81E0020012898B525D1012001F0B4FA012820D06A
:205EB00001F02EFE124C012104F1D800017002F021F8800917D20D4800683222B2FBF0F7D5
:205ED00007B90F46083C04F1300002F0A7F804F13000394602F09EF804F1300002F09CF8CC
:205EF00001E000F085FF002098BDC0466C1E0020980D0020D0B5044602F08CF900F00EFA15
:205F1000071C08BF6FF002041FD001F065FD0146A2880F480023243030F80C6F5EB9028065
:205F30004760A26882602373786820610024084601F052FE09E0964208BF6FF00204F6D061
:205F50005B1C062BE8D300F047F92046D0BDC046C00E00202DE9FC41144C154F0646884686
:205F7000700809D320684568002101220B461FFA88F000903846A847B00809D3206845689C
:205F90000021022201231FFA88F000903846A847F00809D320681FFA88F600210C22022393
:205FB000446800963846A047BDE8FC81A401001000A00C40B0B5044601F0C0FF30F00100E7
:205FD00008BF6FF004041ED002F024F9054601F003FD01460D480622403030F80C7F6FB143
:205FF000A388BB4208D1406800680022854208BF0122A260002403E0521EEED14FF0FF3403
:20601000084601F0E9FD2046B0BDC046A40E00201348144A14490078801E0A2807D8DFE89C
:2060300000F019140F06140F06140F0607C0FEE710688008FCD250688008FCD2FEF77AB91C
:2060500008688008FCD3FEF775B908688008FCD2FEF770B910688008FCD3FEF76BB9C04674
:20607000740E002034600C4038600C403EB5401E4FF000040AD0401E04D0401E1CD1FEF7CA
:2060900059F919E0FFF798FD044615E0684601F08DFF01940B4D8DF80040084902940122F4
:2060B0006B4605F1780000F0ABF9054A2C21234605F19C0000F05EFB20463EBD216000005B
:2060D0009D0A0000900D00201549096821280ADC212819D00C380FD00D380FD0001F0FD0D7
:2060F000C01E0FD01AE0253810D0001F10D0401E10D0401E10D011E00868704748687047A2
:2061100088687047C8687047086970474869704788697047C8697047086A704700207047C1
:20613000F0010020B0B504AF3F881046002F18BF0B2023D10A78022A1CD14A685578127840
:206150004FF6F177002402EB0522D21B06D0921E0AD0521E1CBF201C0A240DD114221A809A
:20617000C968FFF789F908E001221A80C9680978017002E00020012418802046B0BDD0B587
:20619000044602F047F800F0FBFF061C08BF6FF004001DD001F020FCB168002908BF002714
:2061B00009D051F80C2C0023B2600F4641F80C3CFF2601F8026C01F00FFDA7603FB117F8DB
:2061D000080C207117F8070CA0710020D0BD0220D0BD704700BF704708B5FFF7FBFFFEE7BC
:2061F00038B50D4C0546A06820B10C48B0F1FF3F00D080470A4800688047606810B101460A
:2062100028468847206800B18047064800688047FFF7E2FF38BDC046B8110020FFFFFFFFFD
:20623000F0110020F4110020DCB5044601F0F2FF00F0A6FF064601F081FE30F0010014BF06
:20625000002E6FF0040017D0606858B1B0F1FF3F05D0694600F07CFF30B107460BE04FF0BF
:20627000FF3000E0002000907068009901F0CAFF002700B901273846DCBD70472DE9F04107
:2062900006461148401C90F8008014460D46102001F061FA071C12D00421072201F006FD75
:2062B000404601F0EDF938727E72BD72FC6001F062FA044A394600F0E5FBBDE8F081042028
:2062D000BDE8F081FF7F000008020020F8B5044601F0A0FF00F022F8071C19D001F07CFBEB
:2062F00084460D480021243030F80C6F6EB94FF6F872028047600025856021717868A060DC
:20631000604601F069FC2846F8BD491C0629EBD3FFF762FFF8BDC046C00E00202DE9F843AB
:20633000804601F059FB0F4C03250026814654F80C7F5FB93046C4F800800146A6600A4694
:2063500001F020FF606018B9FFF746FF474501D1264601E06D1EEAD1484601F03DFC304632
:20637000BDE8F883C00E0020B0B5054601F052FF044601F0E3FD30F0010008BF6FF00404A3
:2063900014D001F029FB0A4A002132F80C7F4FB153681B689C4204BF2971002404D0491CF4
:2063B0000629F2D36FF0040401F016FC2046B0BDE40E0020F8B506460F4D104F73880024B7
:2063D00017E0A20002EBC402921951689068D26852B9AF420BD00A7855F822200346491C35
:2063F00008461946904701E0FFF746F87388641CA4B2A342E5DCF8BDB4890000C089000042
:20641000F0B515460E4604461F1CADF1240D08BF002308D0684600212422082301F0CEFE05
:20643000B8686B460690204631462A4601F0A6FE0348044F0168204609B03960F0BDC04691
:20645000808500006C1E00200F48B0B58178062918BF072917D14578848A0E2001F07BF94C
:20647000071C10D004210A2201F020FC284601F007F938727C811320387301F07CF9034A14
:20649000394600F0FFFAB0BD08020020F97F0000F0B50D4614461F460646002124220823E0
:2064B000ADF1240D684601F089FE00200590ADF8100008484FF47A71A2B26B4600680697E5
:2064D000B1FBF0F080B229464243304601F056FE09B0F0BD808500002DE9F04105461E46DE
:2064F00090460C46142001F036F9071C13D03246032101F0DBFB3D81002038744046FC603B
:2065100001F0BEF8787401F036F9044A394600F0B9FABDE8F0810420BDE8F0811D7A000061
:206530000F4A01465068ADF1080D08B9002050600846801E12D0801E10D0401E07D001200D
:206550008DF801009DF801000028FBD106E001208DF800009DF800000028FBD102B070479D
:20657000EC0500200C4885460C4885446F4607208743BD460A486F4607600A48002803D05A
:206590007946491D8E460047FEF726FF01F0E8FA01F0F0FDFEE7C046183F0020000400007A
:2065B0006C120020717F00002DE9F04104460E48057890460E46102001F0CDF8071C10D0C6
:2065D0003246042101F072FB284601F059F83872FC6001F0D0F83946424600F053FABDE858
:2065F000F0810420BDE8F0810902002038B50F4C0546204601F066FCA8B9204601F01EFD96
:206610000446A068054209D0E3682269284600219847002818BF4FF0FF3005D1204601F01A
:206630000FFD041CEDD1002038BDC046900D0020D0B504463C20FFF71FF9071C14D0002127
:206650003C22082301F0AAFD207AB86160893862E068386160683946002201F09BFD0646B4
:20667000384600F061FE16B96FF00300D0BD0020D0BDFEE700B500213C220823ADF13C0DA7
:20669000684601F08BFD094800F5B27107914FF42071089103210691054900236A4600F584
:2066B0008A7001F063FD0FB000BDC046080200203D0000002DE9F04101F0CEFC0C4D002417
:2066D00001278046643D05F1980607FA04F018EA000F06D056F8240018B102680AB12146E4
:2066F00090472868641CE4B28442EED9BDE8F081E00C00200E4AB0B51378557807460846AE
:206710000024391C0DD0491E09D0491E06D0491E18BF02240AD102F1200104E02B4603707B
:2067300004E002F10C011422FEF7A6FE2046B0BD380B002098B50C4601F0CAFB002700B133
